S01100004865617274426561742E73726563A3
S113000035C1000050C100004EC100004CC10000C9
S113001036C3000048C1000046C1000044C10000CE
S113002042C1000040C100003EC100003CC10000CC
S11300303AC100007EC1000036C1000034C1000096
S113004032C1000030C100002EC100002CC10000EC
S11300502AC1000028C1000026C1000024C10000FC
S113006022C1000020C100001EC100001CC100000C
S11300701AC1000018C1000016C1000014C100001C
S113008012C1000010C100000EC1000000000000F9
S11300900000005F00000007000700147F147F14B5
S11300A0242A7F2A122313086462364955225000F9
S11300B005030000001C2241000041221C0014081A
S11300C03E081408083E08080050300000080808DC
S11300D00808006060000020100804023E514945F1
S11300E03E00427F400042615149462141454B3127
S11300F01814127F1027454545393C4A49493001B7
S1130100710905033649494936064949291E00360D
S1130110360000005636000008142241001414145E
S1130120141400412214080201510906324979418C
S11301303E7E1111117E7F494949363E414141229B
S11301407F4141221C7F494949417F090909013EF8
S11301504149497A7F0808087F00417F41002040D7
S1130160413F017F081422417F404040407F020C00
S1130170027F7F0408107F3E4141413E7F09090907
S1130180063E4151215E7F091929464649494931B4
S113019001017F01013F4040403F1F2040201F3F9D
S11301A04038403F6314081463070870080761511E
S11301B0494543007F4141000204081020004141A9
S11301C07F00040201020440404040400001020458
S11301D00020545454787F484444383844444420DC
S11301E0384444487F3854545418087E0901020C9A
S11301F05252523E7F0804047800447D400020405F
S1130200443D007F1028440000417F40007C0418D6
S113021004787C0804047838444444387C14141466
S113022008081414187C7C08040408485454542006
S1130230043F4440203C4040207C1C2040201C3C87
S11302404030403C44281028440C5050503C4464F6
S1130250544C44000836410000007F000000413641
S113026008001008081008000000000011241FBE38
S1130270CFEFD0E4DEBFCDBF11E0A0E0B1E0E0E914
S1130280F9E000E00BBF02C007900D92AA30B1075D
S1130290D9F723E0AAE0B1E001C01D92A331B2076F
S11302A0E1F7EAD273C3ACCE2C98662311F02B9AF3
S11302B015C02B9813C0AC01022E02C0559547956A
S11302C00A94E2F740FF02C02A9A01C02A98299AA8
S11302D029982150310978F72C9A089527E030E0C5
S11302E090E0E9CF60E0E0CF08958BE08093810057
S11302F08DE790E0909389008093880082E080935A
S11303006F001092850010928400809101019091F9
S11303100201A0910301B091040180930D03909315
S11303200E03A0930F03B09310038FB780688FBFA1
S113033008951F920F920FB60F9211248F939F93DB
S1130340AF93BF9380910D0390910E03A0910F037F
S1130350B09110030197A109B10980930D03909303
S11303600E03A0930F03B0931003892B8A2B8B2BBE
S113037099F481E08093110380910101909102012D
S1130380A0910301B091040180930D0390930E0397
S1130390A0930F03B0931003BF91AF919F918F91DE
S11303A00F900FBE0F901F901895609301017093EA
S11303B00201809303019093040160930D037093F1
S11303C00E0380930F03909310030895CF93DF934C
S11303D0249A259A239A229A219A2D9A2C9A83EC6C
S11303E099E00197F1F700C000002D988BE594E4A3
S11303F00197F1F700C000002D9A2C9881E272DF7A
S113040083E170DF86E06EDF82EC6CDF80E26ADF1E
S113041089E068DF80E866DF80E464DFC8EFD1E06C
S113042061E080E041DF2197D9F788E05BDF8CE071
S113043059DFDF91CF91089580E854DF80E452DFE3
S113044010920B0310920C03E3E1F1E08BE093E0D4
S11304501192E817F907E1F70895262F26952695B6
S1130460269590E034E5239F800D911D11244423AB
S113047079F0FC01ED5EFE4F677081E090E002C010
S1130480880F991F6A95E2F79081892B80830895DC
S1130490FC01ED5EFE4F677081E090E002C0880FC2
S11304A0991F6A95E2F78095908189238083089546
S11304B05F926F927F928F929F92AF92BF92CF92F0
S11304C0DF92EF92FF920F931F93CF93DF93562EF9
S11304D0262F30E04901880C991C880C991C820E47
S11304E0931E181419040CF059C08901000F111F30
S11304F0000F111F000F111F021B130B612CA82EDC
S1130500B12CC50180975C01AA0CBB1CAA0CBB1CB6
S1130510A80EB91E0F2EFCE0CF2EF3E0DF2EF02D37
S11305200F2EFBE0EF2EF3E0FF2EF02D2AC0FE018C
S1130530249130E0872D652DD0D102C035952795C3
S11305408A95E2F720FF09C0F6016081670DF70183
S1130550808141E0860D81DF08C0F6016081670D6E
S1130560F701808140E0860D78DF7394872D90E059
S113057080179107E4F26394862D90E0881599051D
S11305806CF410161106BCF7862D652DA6D1E50175
S1130590C80FD11DC457DF4F712CC9CF80910B03F5
S11305A091E0980F852D880F880F850D890F84356C
S11305B018F480930B030EC010920B03ECE0F3E0ED
S11305C0808191E0980F852D880F880F880F8519F9
S11305D0890F808380910C03803320F010920B03E9
S11305E010920C03DF91CF911F910F91FF90EF9028
S11305F0DF90CF90BF90AF909F908F907F906F903F
S11306005F9008951F93CF93DF93EC018881882333
S113061039F0162F2196612F4BDF89918111FBCF81
S1130620DF91CF911F9108950F931F93CF93DF9381
S113063080E858DE80E456DEC3E1D1E00BE013E04D
S113064061E0899131DEC017D107D1F7DF91CF91F5
S11306501F910F910895EBE6F0E080818160808323
S1130660E8E6F0E08081816080838FB780688FBF87
S1130670089580910B018F5F80930B0108951F9261
S11306800F920FB60F9211240BB60F922F933F9334
S11306904F935F936F937F938F939F93AF93BF9386
S11306A0EF93FF93E6DFFF91EF91BF91AF919F919D
S11306B08F917F916F915F914F913F912F910F9007
S11306C00BBE0F900FBE0F901F90189520910A013A
S11306D030E040E050E060E67AEE80E090E009D15E
S11306E030930D0120930C0180911203813049F065
S11306F018F0823099F01AC010920F0110920E0176
S11307001BC080910E0190910F01019690930F01EF
S113071080930E0188E18093000112C010920F01B2
S113072010920E0186E68093000120C0813041F0D2
S113073018F0823041F51AC081E0809312030895C5
S113074036952795ABE7B4E1F0D09695879520913F
S11307500E0130910F012817390720F481E08093AE
S11307601203089582E0809312030895809110018A
S113077090911101883C910520F481E0809312034B
S1130780089510921203089580911001909111011F
S113079001969093110180931001883C910568F0B3
S11307A080910B01982F990F890F80930A01109261
S11307B00B0110921101109210010895CF92DF9253
S11307C0EF92FF920F931F93CF93DF93D82F34DED2
S11307D061E085E091E016DF0F2EFBE0EF2EF3E001
S11307E0FF2EF02D88E2F70180830CE013E00F2E3A
S11307F0FFE0CF2EF02DF801C082CDECDC9FD12C90
S11308001124D694D694D6949D2D990F892F880FB0
S1130810880F890FFD2FF81B8F2F63E0805D48DE62
S113082084E1F7018083F801C082DC9EC12D11248C
S1130830C695C695C695CC0F8C2F880F880FC80F08
S11308408D2D8C1B63E0805D33DEF7011082F8018F
S1130850C08289E2D89F812D112482958F7063E034
S1130860805D26DEE1DEDF91CF911F910F91FF9035
S1130870EF90DF90CF90089511B88FEF82B984B9CB
S113088015B887B918B88AB91BB880B1817080933C
S1130890120162E370E080E090E087DD26DDDBDEBC
S11308A095DDCADD1092120310920B011092110112
S11308B01092100169DF80910A0180DF07DF80B1A7
S11308C0817080931201809111038823E1F31092C7
S11308D011038091000188B9EDCF991B79E004C020
S11308E0991F961708F0961B881F7A95C9F780956B
S11308F00895052E97FB16F400940FD057FD05D0EC
S113090023D007FC02D046F408C05095409530959A
S113091021953F4F4F4F5F4F089590958095709567
S113092061957F4F8F4F9F4F0895A29FB001B39F52
S1130930C001A39F700D811D1124911DB29F700DE4
S1130940811D1124911D0895A1E21A2EAA1BBB1B1F
S1130950FD010DC0AA1FBB1FEE1FFF1FA217B30787
S1130960E407F50720F0A21BB30BE40BF50B661F9D
S1130970771F881F991F1A9469F760957095809561
S113098090959B01AC01BD01CF010895F894FFCF70
S10D0990FF0100000042504D3A0040
S9030000FC
